{
  "contractName": "HexGridStore",
  "abi": [
    {
      "constant": true,
      "inputs": [
        {
          "internalType": "string",
          "name": "",
          "type": "string"
        }
      ],
      "name": "hexGridDataItems",
      "outputs": [
        {
          "internalType": "contract HexGrid",
          "name": "HexGridAddress",
          "type": "address"
        },
        {
          "internalType": "uint256",
          "name": "expirationDate",
          "type": "uint256"
        },
        {
          "internalType": "bool",
          "name": "exists",
          "type": "bool"
        }
      ],
      "payable": false,
      "stateMutability": "view",
      "type": "function"
    },
    {
      "constant": false,
      "inputs": [
        {
          "internalType": "string",
          "name": "hexGridId",
          "type": "string"
        },
        {
          "internalType": "string",
          "name": "color",
          "type": "string"
        },
        {
          "internalType": "string",
          "name": "emoji",
          "type": "string"
        },
        {
          "internalType": "string",
          "name": "text",
          "type": "string"
        }
      ],
      "name": "addHexGridData",
      "outputs": [],
      "payable": false,
      "stateMutability": "nonpayable",
      "type": "function"
    },
    {
      "constant": true,
      "inputs": [
        {
          "internalType": "string[]",
          "name": "hexGridIds",
          "type": "string[]"
        }
      ],
      "name": "getHexGrids",
      "outputs": [
        {
          "components": [
            {
              "internalType": "string",
              "name": "Color",
              "type": "string"
            },
            {
              "internalType": "string",
              "name": "Text",
              "type": "string"
            },
            {
              "internalType": "string",
              "name": "Emoji",
              "type": "string"
            }
          ],
          "internalType": "struct HexGrid.HexGridStruct[]",
          "name": "",
          "type": "tuple[]"
        }
      ],
      "payable": false,
      "stateMutability": "view",
      "type": "function"
    }
  ],
  "bytecode": "0x608060405234801561001057600080fd5b50611bcc806100206000396000f3fe60806040523480156200001157600080fd5b5060043610620000465760003560e01c80631b6e6f26146200004b578063c7f9f77a1462000083578063f8a2545f14620000a3575b600080fd5b620000696004803603620000639190810190620008c3565b620000d9565b6040516200007a9392919062000c41565b60405180910390f35b620000a160048036036200009b919081019062000908565b62000146565b005b620000c16004803603620000bb919081019062000852565b6200034b565b604051620000d0919062000c1d565b60405180910390f35b6000818051602081018201805184825260208301602085012081835280955050505050506000915090508060000160009054906101000a900473ffffffffffffffffffffffffffffffffffffffff16908060010154908060020160009054906101000a900460ff16905083565b6000808560405162000159919062000c04565b9081526020016040518091039020600101541462000236576200017b6200058e565b6000856040516200018d919062000c04565b90815260200160405180910390206040518060600160405290816000820160009054906101000a900473ffffffffffffffffffffffffffffffffffffffff1673ffffffffffffffffffffffffffffffffffffffff1673ffffffffffffffffffffffffffffffffffffffff168152602001600182015481526020016002820160009054906101000a900460ff1615151515815250509050806020015142116200023457600080fd5b505b60008382846040516200024990620005c7565b620002579392919062000c7e565b604051809103906000f08015801562000274573d6000803e3d6000fd5b50905060405180606001604052808273ffffffffffffffffffffffffffffffffffffffff168152602001620151804201815260200160011515815250600086604051620002c2919062000c04565b908152602001604051809103902060008201518160000160006101000a81548173ffffffffffffffffffffffffffffffffffffffff021916908373ffffffffffffffffffffffffffffffffffffffff1602179055506020820151816001015560408201518160020160006101000a81548160ff0219169083151502179055509050505050505050565b60606000825190506060816040519080825280602002602001820160405280156200039357816020015b6200037f620005d5565b815260200190600190039081620003755790505b50905060008090505b8281101562000583576060858281518110620003b457fe5b6020026020010151905060011515600082604051620003d4919062000c04565b908152602001604051809103902060020160009054906101000a900460ff16151514156200057457600080826040516200040f919062000c04565b908152602001604051809103902060000160009054906101000a900473ffffffffffffffffffffffffffffffffffffffff169050600115158173ffffffffffffffffffffffffffffffffffffffff1663267c4ae46040518163ffffffff1660e01b815260040160206040518083038186803b1580156200048e57600080fd5b505afa158015620004a3573d6000803e3d6000fd5b505050506040513d601f19601f82011682018060405250620004c9919081019062000897565b1515141562000572578073ffffffffffffffffffffffffffffffffffffffff16633bc5de306040518163ffffffff1660e01b815260040160006040518083038186803b1580156200051957600080fd5b505afa1580156200052e573d6000803e3d6000fd5b505050506040513d6000823e3d601f19601f82011682018060405250620005599190810190620009d8565b8484815181106200056657fe5b60200260200101819052505b505b5080806001019150506200039c565b508092505050919050565b6040518060600160405280600073ffffffffffffffffffffffffffffffffffffffff168152602001600081526020016000151581525090565b610cbe8062000ecc83390190565b60405180606001604052806060815260200160608152602001606081525090565b600082601f8301126200060857600080fd5b81356200061f620006198262000cfe565b62000cd0565b9150818183526020840193506020810190508360005b838110156200066957813586016200064e88826200068a565b84526020840193506020830192505060018101905062000635565b5050505092915050565b600081519050620006848162000eb1565b92915050565b600082601f8301126200069c57600080fd5b8135620006b3620006ad8262000d27565b62000cd0565b91508082526020830160208301858383011115620006d057600080fd5b620006dd83828462000e5b565b50505092915050565b600082601f830112620006f857600080fd5b81516200070f620007098262000d27565b62000cd0565b915080825260208301602083018583830111156200072c57600080fd5b6200073983828462000e6a565b50505092915050565b600082601f8301126200075457600080fd5b81356200076b620007658262000d54565b62000cd0565b915080825260208301602083018583830111156200078857600080fd5b6200079583828462000e5b565b50505092915050565b600060608284031215620007b157600080fd5b620007bd606062000cd0565b9050600082015167ffffffffffffffff811115620007da57600080fd5b620007e884828501620006e6565b600083015250602082015167ffffffffffffffff8111156200080957600080fd5b6200081784828501620006e6565b602083015250604082015167ffffffffffffffff8111156200083857600080fd5b6200084684828501620006e6565b60408301525092915050565b6000602082840312156200086557600080fd5b600082013567ffffffffffffffff8111156200088057600080fd5b6200088e84828501620005f6565b91505092915050565b600060208284031215620008aa57600080fd5b6000620008ba8482850162000673565b91505092915050565b600060208284031215620008d657600080fd5b600082013567ffffffffffffffff811115620008f157600080fd5b620008ff848285016200068a565b91505092915050565b600080600080608085870312156200091f57600080fd5b600085013567ffffffffffffffff8111156200093a57600080fd5b620009488782880162000742565b945050602085013567ffffffffffffffff8111156200096657600080fd5b620009748782880162000742565b935050604085013567ffffffffffffffff8111156200099257600080fd5b620009a08782880162000742565b925050606085013567ffffffffffffffff811115620009be57600080fd5b620009cc8782880162000742565b91505092959194509250565b600060208284031215620009eb57600080fd5b600082015167ffffffffffffffff81111562000a0657600080fd5b62000a14848285016200079e565b91505092915050565b600062000a2b838362000b8f565b905092915050565b600062000a408262000d91565b62000a4c818562000dbf565b93508360208202850162000a608562000d81565b8060005b8581101562000aa2578484038952815162000a80858262000a1d565b945062000a8d8362000db2565b925060208a0199505060018101905062000a64565b50829750879550505050505092915050565b62000abf8162000dfd565b82525050565b62000ad08162000e33565b82525050565b600062000ae38262000da7565b62000aef818562000de1565b935062000b0181856020860162000e6a565b62000b0c8162000ea0565b840191505092915050565b600062000b248262000da7565b62000b30818562000df2565b935062000b4281856020860162000e6a565b80840191505092915050565b600062000b5b8262000d9c565b62000b67818562000dd0565b935062000b7981856020860162000e6a565b62000b848162000ea0565b840191505092915050565b6000606083016000830151848203600086015262000bae828262000b4e565b9150506020830151848203602086015262000bca828262000b4e565b9150506040830151848203604086015262000be6828262000b4e565b9150508091505092915050565b62000bfe8162000e29565b82525050565b600062000c12828462000b17565b915081905092915050565b6000602082019050818103600083015262000c39818462000a33565b905092915050565b600060608201905062000c58600083018662000ac5565b62000c67602083018562000bf3565b62000c76604083018462000ab4565b949350505050565b6000606082019050818103600083015262000c9a818662000ad6565b9050818103602083015262000cb0818562000ad6565b9050818103604083015262000cc6818462000ad6565b9050949350505050565b6000604051905081810181811067ffffffffffffffff8211171562000cf457600080fd5b8060405250919050565b600067ffffffffffffffff82111562000d1657600080fd5b602082029050602081019050919050565b600067ffffffffffffffff82111562000d3f57600080fd5b601f19601f8301169050602081019050919050565b600067ffffffffffffffff82111562000d6c57600080fd5b601f19601f8301169050602081019050919050565b6000819050602082019050919050565b600081519050919050565b600081519050919050565b600081519050919050565b6000602082019050919050565b600082825260208201905092915050565b600082825260208201905092915050565b600082825260208201905092915050565b600081905092915050565b60008115159050919050565b600073ffffffffffffffffffffffffffffffffffffffff82169050919050565b6000819050919050565b600062000e408262000e47565b9050919050565b600062000e548262000e09565b9050919050565b82818337600083830152505050565b60005b8381101562000e8a57808201518184015260208101905062000e6d565b8381111562000e9a576000848401525b50505050565b6000601f19601f8301169050919050565b62000ebc8162000dfd565b811462000ec857600080fd5b5056fe60806040523480156200001157600080fd5b5060405162000cbe38038062000cbe8339818101604052620000379190810190620001b1565b82600090805190602001906200004f929190620000a6565b50816001908051906020019062000068929190620000a6565b50806002908051906020019062000081929190620000a6565b506001600360006101000a81548160ff021916908315150217905550505050620002e3565b828054600181600116156101000203166002900490600052602060002090601f016020900481019282601f10620000e957805160ff19168380011785556200011a565b828001600101855582156200011a579182015b8281111562000119578251825591602001919060010190620000fc565b5b5090506200012991906200012d565b5090565b6200015291905b808211156200014e57600081600090555060010162000134565b5090565b90565b600082601f8301126200016757600080fd5b81516200017e620001788262000280565b62000252565b915080825260208301602083018583830111156200019b57600080fd5b620001a8838284620002ad565b50505092915050565b600080600060608486031215620001c757600080fd5b600084015167ffffffffffffffff811115620001e257600080fd5b620001f08682870162000155565b935050602084015167ffffffffffffffff8111156200020e57600080fd5b6200021c8682870162000155565b925050604084015167ffffffffffffffff8111156200023a57600080fd5b620002488682870162000155565b9150509250925092565b6000604051905081810181811067ffffffffffffffff821117156200027657600080fd5b8060405250919050565b600067ffffffffffffffff8211156200029857600080fd5b601f19601f8301169050602081019050919050565b60005b83811015620002cd578082015181840152602081019050620002b0565b83811115620002dd576000848401525b50505050565b6109cb80620002f36000396000f3fe608060405234801561001057600080fd5b50600436106100885760003560e01c8063de5119f31161005b578063de5119f314610105578063e00fe2eb14610123578063f99a61e714610141578063fc6f34401461015f57610088565b80631873355e1461008d578063267c4ae4146100ab5780633bc5de30146100c95780639a86139b146100e7575b600080fd5b61009561017d565b6040516100a2919061089a565b60405180910390f35b6100b361021b565b6040516100c0919061087f565b60405180910390f35b6100d161022e565b6040516100de91906108de565b60405180910390f35b6100ef610424565b6040516100fc91906108bc565b60405180910390f35b61010d6104c6565b60405161011a919061089a565b60405180910390f35b61012b610564565b60405161013891906108bc565b60405180910390f35b610149610606565b604051610156919061089a565b60405180910390f35b6101676106a4565b60405161017491906108bc565b60405180910390f35b60028054600181600116156101000203166002900480601f0160208091040260200160405190810160405280929190818152602001828054600181600116156101000203166002900480156102135780601f106101e857610100808354040283529160200191610213565b820191906000526020600020905b8154815290600101906020018083116101f657829003601f168201915b505050505081565b600360009054906101000a900460ff1681565b610236610746565b604051806060016040528060008054600181600116156101000203166002900480601f0160208091040260200160405190810160405280929190818152602001828054600181600116156101000203166002900480156102d75780601f106102ac576101008083540402835291602001916102d7565b820191906000526020600020905b8154815290600101906020018083116102ba57829003601f168201915b5050505050815260200160018054600181600116156101000203166002900480601f0160208091040260200160405190810160405280929190818152602001828054600181600116156101000203166002900480156103775780601f1061034c57610100808354040283529160200191610377565b820191906000526020600020905b81548152906001019060200180831161035a57829003601f168201915b5050505050815260200160028054600181600116156101000203166002900480601f0160208091040260200160405190810160405280929190818152602001828054600181600116156101000203166002900480156104175780601f106103ec57610100808354040283529160200191610417565b820191906000526020600020905b8154815290600101906020018083116103fa57829003601f168201915b5050505050815250905090565b606060008054600181600116156101000203166002900480601f0160208091040260200160405190810160405280929190818152602001828054600181600116156101000203166002900480156104bc5780601f10610491576101008083540402835291602001916104bc565b820191906000526020600020905b81548152906001019060200180831161049f57829003601f168201915b5050505050905090565b60008054600181600116156101000203166002900480601f01602080910402602001604051908101604052809291908181526020018280546001816001161561010002031660029004801561055c5780601f106105315761010080835404028352916020019161055c565b820191906000526020600020905b81548152906001019060200180831161053f57829003601f168201915b505050505081565b606060018054600181600116156101000203166002900480601f0160208091040260200160405190810160405280929190818152602001828054600181600116156101000203166002900480156105fc5780601f106105d1576101008083540402835291602001916105fc565b820191906000526020600020905b8154815290600101906020018083116105df57829003601f168201915b5050505050905090565b60018054600181600116156101000203166002900480601f01602080910402602001604051908101604052809291908181526020018280546001816001161561010002031660029004801561069c5780601f106106715761010080835404028352916020019161069c565b820191906000526020600020905b81548152906001019060200180831161067f57829003601f168201915b505050505081565b606060028054600181600116156101000203166002900480601f01602080910402602001604051908101604052809291908181526020018280546001816001161561010002031660029004801561073c5780601f106107115761010080835404028352916020019161073c565b820191906000526020600020905b81548152906001019060200180831161071f57829003601f168201915b5050505050905090565b60405180606001604052806060815260200160608152602001606081525090565b61077081610938565b82525050565b60006107818261090b565b61078b8185610927565b935061079b818560208601610944565b6107a481610977565b840191505092915050565b60006107ba82610900565b6107c48185610916565b93506107d4818560208601610944565b6107dd81610977565b840191505092915050565b60006107f382610900565b6107fd8185610927565b935061080d818560208601610944565b61081681610977565b840191505092915050565b6000606083016000830151848203600086015261083e82826107af565b9150506020830151848203602086015261085882826107af565b9150506040830151848203604086015261087282826107af565b9150508091505092915050565b60006020820190506108946000830184610767565b92915050565b600060208201905081810360008301526108b481846107e8565b905092915050565b600060208201905081810360008301526108d68184610776565b905092915050565b600060208201905081810360008301526108f88184610821565b905092915050565b600081519050919050565b600081519050919050565b600082825260208201905092915050565b600082825260208201905092915050565b60008115159050919050565b60005b83811015610962578082015181840152602081019050610947565b83811115610971576000848401525b50505050565b6000601f19601f830116905091905056fea365627a7a72315820d40d0280e7a57f02a74ae5b684c493333c0b7d59c67fed909dbfa30d74041e986c6578706572696d656e74616cf564736f6c63430005100040a365627a7a723158207dc47500d8b4ec54692519d777b455a250913009b31efb4bddccdcce1b796c226c6578706572696d656e74616cf564736f6c63430005100040",
  "source": "pragma solidity ^0.5.0;\npragma experimental ABIEncoderV2;\n\ncontract HexGrid {\n    string public Color;\n    string public Text;\n    string public Emoji;\n    bool public exists;\n\n    struct HexGridStruct {\n        string Color;\n        string Text;\n        string Emoji;\n    }  \n\n    constructor (string memory color, string memory text, string memory emoji) public {\n        Color = color;\n        Text = text;\n        Emoji = emoji;\n        exists = true;\n    }\n\n    function getColor() public view returns(string memory) {\n        return Color;\n    }\n\n    function getText() public view returns (string memory) {\n        return Text;\n    }\n\n    function getEmoji() public view returns (string memory) {\n        return Emoji;\n    }\n\n    function getData() public view returns (HexGridStruct memory) {\n        return HexGridStruct(Color, Text, Emoji);\n    }\n}\n\ncontract HexGridStore {\n    struct HexGridData {\n        HexGrid HexGridAddress;\n        uint256 expirationDate;\n        bool exists;\n    }\n\n    mapping (string => HexGridData) public hexGridDataItems;\n\n    function addHexGridData(string memory hexGridId, string memory color, string memory emoji, string memory text) public{\n        if (hexGridDataItems[hexGridId].expirationDate != 0) {\n            HexGridData memory prevHexGridDataItem = hexGridDataItems[hexGridId];\n            require(now > prevHexGridDataItem.expirationDate);\n        }\n\n        HexGrid hexGridAddress = new HexGrid(color, text, emoji);\n        hexGridDataItems[hexGridId] = HexGridData(hexGridAddress, now + 1 days, true);\n    }\n\n    function getHexGrids(string[] memory hexGridIds) public view returns(HexGrid.HexGridStruct[] memory){\n        uint len = hexGridIds.length;\n        HexGrid.HexGridStruct[] memory hexGrids = new HexGrid.HexGridStruct[](len); \n\n        for (uint i = 0; i < len; i++) {\n            string memory hexGridId = hexGridIds[i];\n            if (hexGridDataItems[hexGridId].exists == true) {\n                HexGrid iHexGrid = HexGrid(hexGridDataItems[hexGridId].HexGridAddress);\n                if (iHexGrid.exists() == true) {\n                    hexGrids[i] = iHexGrid.getData();\n                }\n            } \n        }\n        return hexGrids;\n    }\n}",
  "sourcePath": "/Users/jerry/Projects/crypto_map/contracts/HexGridStore.sol",
  "compiler": {
    "name": "solc",
    "version": "0.5.16+commit.9c3226ce.Emscripten.clang"
  },
  "schemaVersion": "3.3.3",
  "updatedAt": "2021-03-05T15:16:25.189Z",
  "networkType": "ethereum",
  "devdoc": {
    "methods": {}
  },
  "userdoc": {
    "methods": {}
  }
}