{
  "contractName": "HexGridStore",
  "abi": [
    {
      "constant": true,
      "inputs": [
        {
          "internalType": "string",
          "name": "",
          "type": "string"
        }
      ],
      "name": "hexGridDataItems",
      "outputs": [
        {
          "internalType": "string",
          "name": "color",
          "type": "string"
        },
        {
          "internalType": "string",
          "name": "text",
          "type": "string"
        },
        {
          "internalType": "string",
          "name": "emoji",
          "type": "string"
        },
        {
          "internalType": "uint256",
          "name": "expirationDate",
          "type": "uint256"
        }
      ],
      "payable": false,
      "stateMutability": "view",
      "type": "function"
    },
    {
      "constant": false,
      "inputs": [
        {
          "internalType": "string",
          "name": "hexGridId",
          "type": "string"
        },
        {
          "internalType": "string",
          "name": "color",
          "type": "string"
        },
        {
          "internalType": "string",
          "name": "emoji",
          "type": "string"
        },
        {
          "internalType": "string",
          "name": "text",
          "type": "string"
        }
      ],
      "name": "addHexGridData",
      "outputs": [],
      "payable": false,
      "stateMutability": "nonpayable",
      "type": "function"
    },
    {
      "constant": true,
      "inputs": [
        {
          "internalType": "string[]",
          "name": "hexGridIds",
          "type": "string[]"
        }
      ],
      "name": "getHexGridDataItems",
      "outputs": [
        {
          "components": [
            {
              "internalType": "string",
              "name": "color",
              "type": "string"
            },
            {
              "internalType": "string",
              "name": "text",
              "type": "string"
            },
            {
              "internalType": "string",
              "name": "emoji",
              "type": "string"
            },
            {
              "internalType": "uint256",
              "name": "expirationDate",
              "type": "uint256"
            }
          ],
          "internalType": "struct HexGridStore.HexGridData[]",
          "name": "",
          "type": "tuple[]"
        }
      ],
      "payable": false,
      "stateMutability": "view",
      "type": "function"
    }
  ],
  "bytecode": "0x608060405234801561001057600080fd5b5061100d806100206000396000f3fe608060405234801561001057600080fd5b50600436106100415760003560e01c80631b6e6f2614610046578063c133835714610079578063c7f9f77a146100a9575b600080fd5b610060600480360361005b9190810190610af2565b6100c5565b6040516100709493929190610dea565b60405180910390f35b610093600480360361008e9190810190610ab1565b6102d3565b6040516100a09190610dc8565b60405180910390f35b6100c360048036036100be9190810190610b33565b610589565b005b600081805160208101820180518482526020830160208501208183528095505050505050600091509050806000018054600181600116156101000203166002900480601f0160208091040260200160405190810160405280929190818152602001828054600181600116156101000203166002900480156101875780601f1061015c57610100808354040283529160200191610187565b820191906000526020600020905b81548152906001019060200180831161016a57829003601f168201915b505050505090806001018054600181600116156101000203166002900480601f0160208091040260200160405190810160405280929190818152602001828054600181600116156101000203166002900480156102255780601f106101fa57610100808354040283529160200191610225565b820191906000526020600020905b81548152906001019060200180831161020857829003601f168201915b505050505090806002018054600181600116156101000203166002900480601f0160208091040260200160405190810160405280929190818152602001828054600181600116156101000203166002900480156102c35780601f10610298576101008083540402835291602001916102c3565b820191906000526020600020905b8154815290600101906020018083116102a657829003601f168201915b5050505050908060030154905084565b606060008251905060608160405190808252806020026020018201604052801561031757816020015b6103046108a0565b8152602001906001900390816102fc5790505b50905060008090505b8281101561057e57606085828151811061033657fe5b602002602001015190506000816040516103509190610db1565b9081526020016040518091039020604051806080016040529081600082018054600181600116156101000203166002900480601f0160208091040260200160405190810160405280929190818152602001828054600181600116156101000203166002900480156104025780601f106103d757610100808354040283529160200191610402565b820191906000526020600020905b8154815290600101906020018083116103e557829003601f168201915b50505050508152602001600182018054600181600116156101000203166002900480601f0160208091040260200160405190810160405280929190818152602001828054600181600116156101000203166002900480156104a45780601f10610479576101008083540402835291602001916104a4565b820191906000526020600020905b81548152906001019060200180831161048757829003601f168201915b50505050508152602001600282018054600181600116156101000203166002900480601f0160208091040260200160405190810160405280929190818152602001828054600181600116156101000203166002900480156105465780601f1061051b57610100808354040283529160200191610546565b820191906000526020600020905b81548152906001019060200180831161052957829003601f168201915b5050505050815260200160038201548152505083838151811061056557fe5b6020026020010181905250508080600101915050610320565b508092505050919050565b6000808560405161059a9190610db1565b908152602001604051809103902060030154146107e6576105b96108c8565b6000856040516105c99190610db1565b9081526020016040518091039020604051806080016040529081600082018054600181600116156101000203166002900480601f01602080910402602001604051908101604052809291908181526020018280546001816001161561010002031660029004801561067b5780601f106106505761010080835404028352916020019161067b565b820191906000526020600020905b81548152906001019060200180831161065e57829003601f168201915b50505050508152602001600182018054600181600116156101000203166002900480601f01602080910402602001604051908101604052809291908181526020018280546001816001161561010002031660029004801561071d5780601f106106f25761010080835404028352916020019161071d565b820191906000526020600020905b81548152906001019060200180831161070057829003601f168201915b50505050508152602001600282018054600181600116156101000203166002900480601f0160208091040260200160405190810160405280929190818152602001828054600181600116156101000203166002900480156107bf5780601f10610794576101008083540402835291602001916107bf565b820191906000526020600020905b8154815290600101906020018083116107a257829003601f168201915b505050505081526020016003820154815250509050806060015142116107e457600080fd5b505b6107ee6108c8565b60405180608001604052808581526020018381526020018481526020016201518042018152509050806000866040516108279190610db1565b908152602001604051809103902060008201518160000190805190602001906108519291906108f0565b50602082015181600101908051906020019061086e9291906108f0565b50604082015181600201908051906020019061088b9291906108f0565b50606082015181600301559050505050505050565b6040518060800160405280606081526020016060815260200160608152602001600081525090565b6040518060800160405280606081526020016060815260200160608152602001600081525090565b828054600181600116156101000203166002900490600052602060002090601f016020900481019282601f1061093157805160ff191683800117855561095f565b8280016001018555821561095f579182015b8281111561095e578251825591602001919060010190610943565b5b50905061096c9190610970565b5090565b61099291905b8082111561098e576000816000905550600101610976565b5090565b90565b600082601f8301126109a657600080fd5b81356109b96109b482610e71565b610e44565b9150818183526020840193506020810190508360005b838110156109ff57813586016109e58882610a09565b8452602084019350602083019250506001810190506109cf565b5050505092915050565b600082601f830112610a1a57600080fd5b8135610a2d610a2882610e99565b610e44565b91508082526020830160208301858383011115610a4957600080fd5b610a54838284610f77565b50505092915050565b600082601f830112610a6e57600080fd5b8135610a81610a7c82610ec5565b610e44565b91508082526020830160208301858383011115610a9d57600080fd5b610aa8838284610f77565b50505092915050565b600060208284031215610ac357600080fd5b600082013567ffffffffffffffff811115610add57600080fd5b610ae984828501610995565b91505092915050565b600060208284031215610b0457600080fd5b600082013567ffffffffffffffff811115610b1e57600080fd5b610b2a84828501610a09565b91505092915050565b60008060008060808587031215610b4957600080fd5b600085013567ffffffffffffffff811115610b6357600080fd5b610b6f87828801610a5d565b945050602085013567ffffffffffffffff811115610b8c57600080fd5b610b9887828801610a5d565b935050604085013567ffffffffffffffff811115610bb557600080fd5b610bc187828801610a5d565b925050606085013567ffffffffffffffff811115610bde57600080fd5b610bea87828801610a5d565b91505092959194509250565b6000610c028383610d22565b905092915050565b6000610c1582610f01565b610c1f8185610f2f565b935083602082028501610c3185610ef1565b8060005b85811015610c6d5784840389528151610c4e8582610bf6565b9450610c5983610f22565b925060208a01995050600181019050610c35565b50829750879550505050505092915050565b6000610c8a82610f17565b610c948185610f62565b9350610ca4818560208601610f86565b80840191505092915050565b6000610cbb82610f0c565b610cc58185610f40565b9350610cd5818560208601610f86565b610cde81610fb9565b840191505092915050565b6000610cf482610f0c565b610cfe8185610f51565b9350610d0e818560208601610f86565b610d1781610fb9565b840191505092915050565b60006080830160008301518482036000860152610d3f8282610cb0565b91505060208301518482036020860152610d598282610cb0565b91505060408301518482036040860152610d738282610cb0565b9150506060830151610d886060860182610d93565b508091505092915050565b610d9c81610f6d565b82525050565b610dab81610f6d565b82525050565b6000610dbd8284610c7f565b915081905092915050565b60006020820190508181036000830152610de28184610c0a565b905092915050565b60006080820190508181036000830152610e048187610ce9565b90508181036020830152610e188186610ce9565b90508181036040830152610e2c8185610ce9565b9050610e3b6060830184610da2565b95945050505050565b6000604051905081810181811067ffffffffffffffff82111715610e6757600080fd5b8060405250919050565b600067ffffffffffffffff821115610e8857600080fd5b602082029050602081019050919050565b600067ffffffffffffffff821115610eb057600080fd5b601f19601f8301169050602081019050919050565b600067ffffffffffffffff821115610edc57600080fd5b601f19601f8301169050602081019050919050565b6000819050602082019050919050565b600081519050919050565b600081519050919050565b600081519050919050565b6000602082019050919050565b600082825260208201905092915050565b600082825260208201905092915050565b600082825260208201905092915050565b600081905092915050565b6000819050919050565b82818337600083830152505050565b60005b83811015610fa4578082015181840152602081019050610f89565b83811115610fb3576000848401525b50505050565b6000601f19601f830116905091905056fea365627a7a72315820003e5d05baa7007fe39e0c9d853dbc6c7365eb6e1add5a9f9576aaff58e38ecf6c6578706572696d656e74616cf564736f6c63430005100040",
  "source": "pragma solidity ^0.5.0;\npragma experimental ABIEncoderV2;\n\ncontract HexGridStore {\n    struct HexGridData {\n        string color;\n        string text;\n        string emoji;\n        uint256 expirationDate;\n    }\n\n    mapping (string => HexGridData) public hexGridDataItems;\n\n    function addHexGridData(string memory hexGridId, string memory color, string memory emoji, string memory text) public{\n        if (hexGridDataItems[hexGridId].expirationDate != 0) {\n            HexGridData memory prevHexGridDataItem = hexGridDataItems[hexGridId];\n            require(now > prevHexGridDataItem.expirationDate);\n        }\n        HexGridData memory hexGridDataItem = HexGridData(color, text, emoji, now + 1 days);\n        hexGridDataItems[hexGridId] = hexGridDataItem;\n    }\n\n    function getHexGridDataItems(string[] memory hexGridIds) public view returns(HexGridData[] memory){\n        uint len = hexGridIds.length;\n        HexGridData[] memory dataItems = new HexGridData[](len);\n\n        for (uint i = 0; i < len; i++) {\n            string memory hexGridId = hexGridIds[i];\n            dataItems[i] = hexGridDataItems[hexGridId];\n        }\n\n        return dataItems;\n    }\n}",
  "sourcePath": "/Users/jerry/Projects/crypto_map/contracts/HexGridStore.sol",
  "compiler": {
    "name": "solc",
    "version": "0.5.16+commit.9c3226ce.Emscripten.clang"
  },
  "schemaVersion": "3.3.3",
  "updatedAt": "2021-02-02T03:57:43.130Z",
  "networkType": "ethereum",
  "devdoc": {
    "methods": {}
  },
  "userdoc": {
    "methods": {}
  }
}