{
  "contractName": "HexGrid",
  "abi": [
    {
      "inputs": [
        {
          "internalType": "string",
          "name": "color",
          "type": "string"
        },
        {
          "internalType": "string",
          "name": "text",
          "type": "string"
        },
        {
          "internalType": "string",
          "name": "emoji",
          "type": "string"
        }
      ],
      "payable": false,
      "stateMutability": "nonpayable",
      "type": "constructor"
    },
    {
      "constant": true,
      "inputs": [],
      "name": "Color",
      "outputs": [
        {
          "internalType": "string",
          "name": "",
          "type": "string"
        }
      ],
      "payable": false,
      "stateMutability": "view",
      "type": "function"
    },
    {
      "constant": true,
      "inputs": [],
      "name": "Emoji",
      "outputs": [
        {
          "internalType": "string",
          "name": "",
          "type": "string"
        }
      ],
      "payable": false,
      "stateMutability": "view",
      "type": "function"
    },
    {
      "constant": true,
      "inputs": [],
      "name": "Text",
      "outputs": [
        {
          "internalType": "string",
          "name": "",
          "type": "string"
        }
      ],
      "payable": false,
      "stateMutability": "view",
      "type": "function"
    },
    {
      "constant": true,
      "inputs": [],
      "name": "exists",
      "outputs": [
        {
          "internalType": "bool",
          "name": "",
          "type": "bool"
        }
      ],
      "payable": false,
      "stateMutability": "view",
      "type": "function"
    },
    {
      "constant": true,
      "inputs": [],
      "name": "getColor",
      "outputs": [
        {
          "internalType": "string",
          "name": "",
          "type": "string"
        }
      ],
      "payable": false,
      "stateMutability": "view",
      "type": "function"
    },
    {
      "constant": true,
      "inputs": [],
      "name": "getText",
      "outputs": [
        {
          "internalType": "string",
          "name": "",
          "type": "string"
        }
      ],
      "payable": false,
      "stateMutability": "view",
      "type": "function"
    },
    {
      "constant": true,
      "inputs": [],
      "name": "getEmoji",
      "outputs": [
        {
          "internalType": "string",
          "name": "",
          "type": "string"
        }
      ],
      "payable": false,
      "stateMutability": "view",
      "type": "function"
    },
    {
      "constant": true,
      "inputs": [],
      "name": "getData",
      "outputs": [
        {
          "components": [
            {
              "internalType": "string",
              "name": "Color",
              "type": "string"
            },
            {
              "internalType": "string",
              "name": "Text",
              "type": "string"
            },
            {
              "internalType": "string",
              "name": "Emoji",
              "type": "string"
            }
          ],
          "internalType": "struct HexGrid.HexGridStruct",
          "name": "",
          "type": "tuple"
        }
      ],
      "payable": false,
      "stateMutability": "view",
      "type": "function"
    }
  ],
  "bytecode": "0x60806040523480156200001157600080fd5b5060405162000cbe38038062000cbe8339818101604052620000379190810190620001b1565b82600090805190602001906200004f929190620000a6565b50816001908051906020019062000068929190620000a6565b50806002908051906020019062000081929190620000a6565b506001600360006101000a81548160ff021916908315150217905550505050620002e3565b828054600181600116156101000203166002900490600052602060002090601f016020900481019282601f10620000e957805160ff19168380011785556200011a565b828001600101855582156200011a579182015b8281111562000119578251825591602001919060010190620000fc565b5b5090506200012991906200012d565b5090565b6200015291905b808211156200014e57600081600090555060010162000134565b5090565b90565b600082601f8301126200016757600080fd5b81516200017e620001788262000280565b62000252565b915080825260208301602083018583830111156200019b57600080fd5b620001a8838284620002ad565b50505092915050565b600080600060608486031215620001c757600080fd5b600084015167ffffffffffffffff811115620001e257600080fd5b620001f08682870162000155565b935050602084015167ffffffffffffffff8111156200020e57600080fd5b6200021c8682870162000155565b925050604084015167ffffffffffffffff8111156200023a57600080fd5b620002488682870162000155565b9150509250925092565b6000604051905081810181811067ffffffffffffffff821117156200027657600080fd5b8060405250919050565b600067ffffffffffffffff8211156200029857600080fd5b601f19601f8301169050602081019050919050565b60005b83811015620002cd578082015181840152602081019050620002b0565b83811115620002dd576000848401525b50505050565b6109cb80620002f36000396000f3fe608060405234801561001057600080fd5b50600436106100885760003560e01c8063de5119f31161005b578063de5119f314610105578063e00fe2eb14610123578063f99a61e714610141578063fc6f34401461015f57610088565b80631873355e1461008d578063267c4ae4146100ab5780633bc5de30146100c95780639a86139b146100e7575b600080fd5b61009561017d565b6040516100a2919061089a565b60405180910390f35b6100b361021b565b6040516100c0919061087f565b60405180910390f35b6100d161022e565b6040516100de91906108de565b60405180910390f35b6100ef610424565b6040516100fc91906108bc565b60405180910390f35b61010d6104c6565b60405161011a919061089a565b60405180910390f35b61012b610564565b60405161013891906108bc565b60405180910390f35b610149610606565b604051610156919061089a565b60405180910390f35b6101676106a4565b60405161017491906108bc565b60405180910390f35b60028054600181600116156101000203166002900480601f0160208091040260200160405190810160405280929190818152602001828054600181600116156101000203166002900480156102135780601f106101e857610100808354040283529160200191610213565b820191906000526020600020905b8154815290600101906020018083116101f657829003601f168201915b505050505081565b600360009054906101000a900460ff1681565b610236610746565b604051806060016040528060008054600181600116156101000203166002900480601f0160208091040260200160405190810160405280929190818152602001828054600181600116156101000203166002900480156102d75780601f106102ac576101008083540402835291602001916102d7565b820191906000526020600020905b8154815290600101906020018083116102ba57829003601f168201915b5050505050815260200160018054600181600116156101000203166002900480601f0160208091040260200160405190810160405280929190818152602001828054600181600116156101000203166002900480156103775780601f1061034c57610100808354040283529160200191610377565b820191906000526020600020905b81548152906001019060200180831161035a57829003601f168201915b5050505050815260200160028054600181600116156101000203166002900480601f0160208091040260200160405190810160405280929190818152602001828054600181600116156101000203166002900480156104175780601f106103ec57610100808354040283529160200191610417565b820191906000526020600020905b8154815290600101906020018083116103fa57829003601f168201915b5050505050815250905090565b606060008054600181600116156101000203166002900480601f0160208091040260200160405190810160405280929190818152602001828054600181600116156101000203166002900480156104bc5780601f10610491576101008083540402835291602001916104bc565b820191906000526020600020905b81548152906001019060200180831161049f57829003601f168201915b5050505050905090565b60008054600181600116156101000203166002900480601f01602080910402602001604051908101604052809291908181526020018280546001816001161561010002031660029004801561055c5780601f106105315761010080835404028352916020019161055c565b820191906000526020600020905b81548152906001019060200180831161053f57829003601f168201915b505050505081565b606060018054600181600116156101000203166002900480601f0160208091040260200160405190810160405280929190818152602001828054600181600116156101000203166002900480156105fc5780601f106105d1576101008083540402835291602001916105fc565b820191906000526020600020905b8154815290600101906020018083116105df57829003601f168201915b5050505050905090565b60018054600181600116156101000203166002900480601f01602080910402602001604051908101604052809291908181526020018280546001816001161561010002031660029004801561069c5780601f106106715761010080835404028352916020019161069c565b820191906000526020600020905b81548152906001019060200180831161067f57829003601f168201915b505050505081565b606060028054600181600116156101000203166002900480601f01602080910402602001604051908101604052809291908181526020018280546001816001161561010002031660029004801561073c5780601f106107115761010080835404028352916020019161073c565b820191906000526020600020905b81548152906001019060200180831161071f57829003601f168201915b5050505050905090565b60405180606001604052806060815260200160608152602001606081525090565b61077081610938565b82525050565b60006107818261090b565b61078b8185610927565b935061079b818560208601610944565b6107a481610977565b840191505092915050565b60006107ba82610900565b6107c48185610916565b93506107d4818560208601610944565b6107dd81610977565b840191505092915050565b60006107f382610900565b6107fd8185610927565b935061080d818560208601610944565b61081681610977565b840191505092915050565b6000606083016000830151848203600086015261083e82826107af565b9150506020830151848203602086015261085882826107af565b9150506040830151848203604086015261087282826107af565b9150508091505092915050565b60006020820190506108946000830184610767565b92915050565b600060208201905081810360008301526108b481846107e8565b905092915050565b600060208201905081810360008301526108d68184610776565b905092915050565b600060208201905081810360008301526108f88184610821565b905092915050565b600081519050919050565b600081519050919050565b600082825260208201905092915050565b600082825260208201905092915050565b60008115159050919050565b60005b83811015610962578082015181840152602081019050610947565b83811115610971576000848401525b50505050565b6000601f19601f830116905091905056fea365627a7a72315820d40d0280e7a57f02a74ae5b684c493333c0b7d59c67fed909dbfa30d74041e986c6578706572696d656e74616cf564736f6c63430005100040",
  "source": "pragma solidity ^0.5.0;\npragma experimental ABIEncoderV2;\n\ncontract HexGrid {\n    string public Color;\n    string public Text;\n    string public Emoji;\n    bool public exists;\n\n    struct HexGridStruct {\n        string Color;\n        string Text;\n        string Emoji;\n    }  \n\n    constructor (string memory color, string memory text, string memory emoji) public {\n        Color = color;\n        Text = text;\n        Emoji = emoji;\n        exists = true;\n    }\n\n    function getColor() public view returns(string memory) {\n        return Color;\n    }\n\n    function getText() public view returns (string memory) {\n        return Text;\n    }\n\n    function getEmoji() public view returns (string memory) {\n        return Emoji;\n    }\n\n    function getData() public view returns (HexGridStruct memory) {\n        return HexGridStruct(Color, Text, Emoji);\n    }\n}\n\ncontract HexGridStore {\n    struct HexGridData {\n        HexGrid HexGridAddress;\n        uint256 expirationDate;\n        bool exists;\n    }\n\n    mapping (string => HexGridData) public hexGridDataItems;\n\n    function addHexGridData(string memory hexGridId, string memory color, string memory emoji, string memory text) public{\n        if (hexGridDataItems[hexGridId].expirationDate != 0) {\n            HexGridData memory prevHexGridDataItem = hexGridDataItems[hexGridId];\n            require(now > prevHexGridDataItem.expirationDate);\n        }\n\n        HexGrid hexGridAddress = new HexGrid(color, text, emoji);\n        hexGridDataItems[hexGridId] = HexGridData(hexGridAddress, now + 1 days, true);\n    }\n\n    function getHexGrids(string[] memory hexGridIds) public view returns(HexGrid.HexGridStruct[] memory){\n        uint len = hexGridIds.length;\n        HexGrid.HexGridStruct[] memory hexGrids = new HexGrid.HexGridStruct[](len); \n\n        for (uint i = 0; i < len; i++) {\n            string memory hexGridId = hexGridIds[i];\n            if (hexGridDataItems[hexGridId].exists == true) {\n                HexGrid iHexGrid = HexGrid(hexGridDataItems[hexGridId].HexGridAddress);\n                if (iHexGrid.exists() == true) {\n                    hexGrids[i] = iHexGrid.getData();\n                }\n            } \n        }\n        return hexGrids;\n    }\n}",
  "sourcePath": "/Users/jerry/Projects/crypto_map/contracts/HexGridStore.sol",
  "compiler": {
    "name": "solc",
    "version": "0.5.16+commit.9c3226ce.Emscripten.clang"
  },
  "schemaVersion": "3.3.3",
  "updatedAt": "2021-03-05T15:16:04.570Z",
  "devdoc": {
    "methods": {}
  },
  "userdoc": {
    "methods": {}
  }
}