{
  "contractName": "HexGridStore",
  "abi": [
    {
      "constant": false,
      "inputs": [
        {
          "internalType": "string",
          "name": "hexGridId",
          "type": "string"
        },
        {
          "internalType": "string",
          "name": "color",
          "type": "string"
        },
        {
          "internalType": "string",
          "name": "emoji",
          "type": "string"
        },
        {
          "internalType": "string",
          "name": "text",
          "type": "string"
        }
      ],
      "name": "addHexGridData",
      "outputs": [],
      "payable": false,
      "stateMutability": "nonpayable",
      "type": "function"
    },
    {
      "constant": false,
      "inputs": [
        {
          "internalType": "string[]",
          "name": "hexGridIds",
          "type": "string[]"
        }
      ],
      "name": "getHexGridDataItems",
      "outputs": [
        {
          "components": [
            {
              "internalType": "string",
              "name": "color",
              "type": "string"
            },
            {
              "internalType": "string",
              "name": "text",
              "type": "string"
            },
            {
              "internalType": "string",
              "name": "emoji",
              "type": "string"
            },
            {
              "internalType": "uint256",
              "name": "expirationDate",
              "type": "uint256"
            }
          ],
          "internalType": "struct HexGridStore.HexGridData[]",
          "name": "",
          "type": "tuple[]"
        }
      ],
      "payable": false,
      "stateMutability": "nonpayable",
      "type": "function"
    }
  ],
  "bytecode": "0x608060405234801561001057600080fd5b50610cd5806100206000396000f3fe608060405234801561001057600080fd5b50600436106100365760003560e01c8063c13383571461003b578063c7f9f77a1461006b575b600080fd5b6100556004803603610050919081019061086d565b610087565b6040516100629190610afb565b60405180910390f35b610085600480360361008091908101906108ae565b61033d565b005b60606000825190506060816040519080825280602002602001820160405280156100cb57816020015b6100b861065c565b8152602001906001900390816100b05790505b50905060008090505b828110156103325760608582815181106100ea57fe5b602002602001015190506000816040516101049190610ae4565b9081526020016040518091039020604051806080016040529081600082018054600181600116156101000203166002900480601f0160208091040260200160405190810160405280929190818152602001828054600181600116156101000203166002900480156101b65780601f1061018b576101008083540402835291602001916101b6565b820191906000526020600020905b81548152906001019060200180831161019957829003601f168201915b50505050508152602001600182018054600181600116156101000203166002900480601f0160208091040260200160405190810160405280929190818152602001828054600181600116156101000203166002900480156102585780601f1061022d57610100808354040283529160200191610258565b820191906000526020600020905b81548152906001019060200180831161023b57829003601f168201915b50505050508152602001600282018054600181600116156101000203166002900480601f0160208091040260200160405190810160405280929190818152602001828054600181600116156101000203166002900480156102fa5780601f106102cf576101008083540402835291602001916102fa565b820191906000526020600020905b8154815290600101906020018083116102dd57829003601f168201915b5050505050815260200160038201548152505083838151811061031957fe5b60200260200101819052505080806001019150506100d4565b508092505050919050565b6000620151809050600080866040516103569190610ae4565b908152602001604051809103902060030154146105a457610375610684565b6000866040516103859190610ae4565b9081526020016040518091039020604051806080016040529081600082018054600181600116156101000203166002900480601f0160208091040260200160405190810160405280929190818152602001828054600181600116156101000203166002900480156104375780601f1061040c57610100808354040283529160200191610437565b820191906000526020600020905b81548152906001019060200180831161041a57829003601f168201915b50505050508152602001600182018054600181600116156101000203166002900480601f0160208091040260200160405190810160405280929190818152602001828054600181600116156101000203166002900480156104d95780601f106104ae576101008083540402835291602001916104d9565b820191906000526020600020905b8154815290600101906020018083116104bc57829003601f168201915b50505050508152602001600282018054600181600116156101000203166002900480601f01602080910402602001604051908101604052809291908181526020018280546001816001161561010002031660029004801561057b5780601f106105505761010080835404028352916020019161057b565b820191906000526020600020905b81548152906001019060200180831161055e57829003601f168201915b5050505050815260200160038201548152505090508181606001514203116105a257600080fd5b505b6105ac610684565b60405180608001604052808681526020018481526020018581526020018342018152509050806000876040516105e29190610ae4565b9081526020016040518091039020600082015181600001908051906020019061060c9291906106ac565b5060208201518160010190805190602001906106299291906106ac565b5060408201518160020190805190602001906106469291906106ac565b5060608201518160030155905050505050505050565b6040518060800160405280606081526020016060815260200160608152602001600081525090565b6040518060800160405280606081526020016060815260200160608152602001600081525090565b828054600181600116156101000203166002900490600052602060002090601f016020900481019282601f106106ed57805160ff191683800117855561071b565b8280016001018555821561071b579182015b8281111561071a5782518255916020019190600101906106ff565b5b509050610728919061072c565b5090565b61074e91905b8082111561074a576000816000905550600101610732565b5090565b90565b600082601f83011261076257600080fd5b813561077561077082610b4a565b610b1d565b9150818183526020840193506020810190508360005b838110156107bb57813586016107a188826107c5565b84526020840193506020830192505060018101905061078b565b5050505092915050565b600082601f8301126107d657600080fd5b81356107e96107e482610b72565b610b1d565b9150808252602083016020830185838301111561080557600080fd5b610810838284610c3f565b50505092915050565b600082601f83011261082a57600080fd5b813561083d61083882610b9e565b610b1d565b9150808252602083016020830185838301111561085957600080fd5b610864838284610c3f565b50505092915050565b60006020828403121561087f57600080fd5b600082013567ffffffffffffffff81111561089957600080fd5b6108a584828501610751565b91505092915050565b600080600080608085870312156108c457600080fd5b600085013567ffffffffffffffff8111156108de57600080fd5b6108ea87828801610819565b945050602085013567ffffffffffffffff81111561090757600080fd5b61091387828801610819565b935050604085013567ffffffffffffffff81111561093057600080fd5b61093c87828801610819565b925050606085013567ffffffffffffffff81111561095957600080fd5b61096587828801610819565b91505092959194509250565b600061097d8383610a64565b905092915050565b600061099082610bda565b61099a8185610c08565b9350836020820285016109ac85610bca565b8060005b858110156109e857848403895281516109c98582610971565b94506109d483610bfb565b925060208a019950506001810190506109b0565b50829750879550505050505092915050565b6000610a0582610bf0565b610a0f8185610c2a565b9350610a1f818560208601610c4e565b80840191505092915050565b6000610a3682610be5565b610a408185610c19565b9350610a50818560208601610c4e565b610a5981610c81565b840191505092915050565b60006080830160008301518482036000860152610a818282610a2b565b91505060208301518482036020860152610a9b8282610a2b565b91505060408301518482036040860152610ab58282610a2b565b9150506060830151610aca6060860182610ad5565b508091505092915050565b610ade81610c35565b82525050565b6000610af082846109fa565b915081905092915050565b60006020820190508181036000830152610b158184610985565b905092915050565b6000604051905081810181811067ffffffffffffffff82111715610b4057600080fd5b8060405250919050565b600067ffffffffffffffff821115610b6157600080fd5b602082029050602081019050919050565b600067ffffffffffffffff821115610b8957600080fd5b601f19601f8301169050602081019050919050565b600067ffffffffffffffff821115610bb557600080fd5b601f19601f8301169050602081019050919050565b6000819050602082019050919050565b600081519050919050565b600081519050919050565b600081519050919050565b6000602082019050919050565b600082825260208201905092915050565b600082825260208201905092915050565b600081905092915050565b6000819050919050565b82818337600083830152505050565b60005b83811015610c6c578082015181840152602081019050610c51565b83811115610c7b576000848401525b50505050565b6000601f19601f830116905091905056fea365627a7a7231582075b87864570dded7647647dd01f627545f86d9c96015a5ce30b08b0b90ac5d716c6578706572696d656e74616cf564736f6c63430005100040",
  "source": "pragma solidity ^0.5.0;\npragma experimental ABIEncoderV2;\n\ncontract HexGridStore {\n    struct HexGridData {\n        string color;\n        string text;\n        string emoji;\n        uint256 expirationDate;\n    }\n\n    mapping (string => HexGridData) hexGridDataItems;\n\n    function addHexGridData(string memory hexGridId, string memory color, string memory emoji, string memory text) public{\n        uint epochDay = 86400;\n        if (hexGridDataItems[hexGridId].expirationDate != 0) {\n            \n            HexGridData memory prevHexGridDataItem = hexGridDataItems[hexGridId];\n            if ((now - prevHexGridDataItem.expirationDate) <= epochDay) {\n                revert();\n            }\n        }\n\n        HexGridData memory hexGridDataItem = HexGridData(color, text, emoji, now + epochDay);\n        hexGridDataItems[hexGridId] = hexGridDataItem;\n    }\n\n    function getHexGridDataItems(string[] memory hexGridIds) public returns(HexGridData[] memory){\n        uint len = hexGridIds.length;\n        HexGridData[] memory dataItems = new HexGridData[](len);\n\n        for (uint i = 0; i < len; i++) {\n            string memory hexGridId = hexGridIds[i];\n            dataItems[i] = hexGridDataItems[hexGridId];\n        }\n\n        return dataItems;\n    }\n}",
  "sourcePath": "/Users/jerry/Projects/crypto_map/contracts/HexGridStore.sol",
  "compiler": {
    "name": "solc",
    "version": "0.5.16+commit.9c3226ce.Emscripten.clang"
  },
  "schemaVersion": "3.3.3",
  "updatedAt": "2021-01-19T01:34:02.976Z",
  "devdoc": {
    "methods": {}
  },
  "userdoc": {
    "methods": {}
  }
}