{
  "contractName": "HexGrid",
  "abi": [
    {
      "inputs": [
        {
          "internalType": "string",
          "name": "color",
          "type": "string"
        },
        {
          "internalType": "string",
          "name": "text",
          "type": "string"
        },
        {
          "internalType": "string",
          "name": "emoji",
          "type": "string"
        }
      ],
      "payable": false,
      "stateMutability": "nonpayable",
      "type": "constructor"
    },
    {
      "constant": true,
      "inputs": [],
      "name": "Color",
      "outputs": [
        {
          "internalType": "string",
          "name": "",
          "type": "string"
        }
      ],
      "payable": false,
      "stateMutability": "view",
      "type": "function"
    },
    {
      "constant": true,
      "inputs": [],
      "name": "CreatedDate",
      "outputs": [
        {
          "internalType": "uint256",
          "name": "",
          "type": "uint256"
        }
      ],
      "payable": false,
      "stateMutability": "view",
      "type": "function"
    },
    {
      "constant": true,
      "inputs": [],
      "name": "Emoji",
      "outputs": [
        {
          "internalType": "string",
          "name": "",
          "type": "string"
        }
      ],
      "payable": false,
      "stateMutability": "view",
      "type": "function"
    },
    {
      "constant": true,
      "inputs": [],
      "name": "Text",
      "outputs": [
        {
          "internalType": "string",
          "name": "",
          "type": "string"
        }
      ],
      "payable": false,
      "stateMutability": "view",
      "type": "function"
    },
    {
      "constant": true,
      "inputs": [],
      "name": "exists",
      "outputs": [
        {
          "internalType": "bool",
          "name": "",
          "type": "bool"
        }
      ],
      "payable": false,
      "stateMutability": "view",
      "type": "function"
    },
    {
      "constant": true,
      "inputs": [],
      "name": "getColor",
      "outputs": [
        {
          "internalType": "string",
          "name": "",
          "type": "string"
        }
      ],
      "payable": false,
      "stateMutability": "view",
      "type": "function"
    },
    {
      "constant": true,
      "inputs": [],
      "name": "getText",
      "outputs": [
        {
          "internalType": "string",
          "name": "",
          "type": "string"
        }
      ],
      "payable": false,
      "stateMutability": "view",
      "type": "function"
    },
    {
      "constant": true,
      "inputs": [],
      "name": "getEmoji",
      "outputs": [
        {
          "internalType": "string",
          "name": "",
          "type": "string"
        }
      ],
      "payable": false,
      "stateMutability": "view",
      "type": "function"
    },
    {
      "constant": true,
      "inputs": [],
      "name": "getCreatedDate",
      "outputs": [
        {
          "internalType": "uint256",
          "name": "",
          "type": "uint256"
        }
      ],
      "payable": false,
      "stateMutability": "view",
      "type": "function"
    },
    {
      "constant": true,
      "inputs": [],
      "name": "getData",
      "outputs": [
        {
          "components": [
            {
              "internalType": "string",
              "name": "Color",
              "type": "string"
            },
            {
              "internalType": "string",
              "name": "Text",
              "type": "string"
            },
            {
              "internalType": "string",
              "name": "Emoji",
              "type": "string"
            },
            {
              "internalType": "uint256",
              "name": "CreatedDate",
              "type": "uint256"
            }
          ],
          "internalType": "struct HexGrid.HexGridStruct",
          "name": "",
          "type": "tuple"
        }
      ],
      "payable": false,
      "stateMutability": "view",
      "type": "function"
    }
  ],
  "bytecode": "0x60806040523480156200001157600080fd5b5060405162000d8c38038062000d8c8339818101604052620000379190810190620001b8565b82600090805190602001906200004f929190620000ad565b50816001908051906020019062000068929190620000ad565b50806002908051906020019062000081929190620000ad565b50426003819055506001600460006101000a81548160ff021916908315150217905550505050620002ea565b828054600181600116156101000203166002900490600052602060002090601f016020900481019282601f10620000f057805160ff191683800117855562000121565b8280016001018555821562000121579182015b828111156200012057825182559160200191906001019062000103565b5b50905062000130919062000134565b5090565b6200015991905b80821115620001555760008160009055506001016200013b565b5090565b90565b600082601f8301126200016e57600080fd5b8151620001856200017f8262000287565b62000259565b91508082526020830160208301858383011115620001a257600080fd5b620001af838284620002b4565b50505092915050565b600080600060608486031215620001ce57600080fd5b600084015167ffffffffffffffff811115620001e957600080fd5b620001f7868287016200015c565b935050602084015167ffffffffffffffff8111156200021557600080fd5b62000223868287016200015c565b925050604084015167ffffffffffffffff8111156200024157600080fd5b6200024f868287016200015c565b9150509250925092565b6000604051905081810181811067ffffffffffffffff821117156200027d57600080fd5b8060405250919050565b600067ffffffffffffffff8211156200029f57600080fd5b601f19601f8301169050602081019050919050565b60005b83811015620002d4578082015181840152602081019050620002b7565b83811115620002e4576000848401525b50505050565b610a9280620002fa6000396000f3fe608060405234801561001057600080fd5b506004361061009e5760003560e01c80639a86139b116100665780639a86139b14610139578063de5119f314610157578063e00fe2eb14610175578063f99a61e714610193578063fc6f3440146101b15761009e565b806308d056f0146100a35780631873355e146100c1578063267c4ae4146100df57806328aea735146100fd5780633bc5de301461011b575b600080fd5b6100ab6101cf565b6040516100b891906109a2565b60405180910390f35b6100c96101d5565b6040516100d6919061093c565b60405180910390f35b6100e7610273565b6040516100f49190610921565b60405180910390f35b610105610286565b60405161011291906109a2565b60405180910390f35b610123610290565b6040516101309190610980565b60405180910390f35b61014161048e565b60405161014e919061095e565b60405180910390f35b61015f610530565b60405161016c919061093c565b60405180910390f35b61017d6105ce565b60405161018a919061095e565b60405180910390f35b61019b610670565b6040516101a8919061093c565b60405180910390f35b6101b961070e565b6040516101c6919061095e565b60405180910390f35b60035481565b60028054600181600116156101000203166002900480601f01602080910402602001604051908101604052809291908181526020018280546001816001161561010002031660029004801561026b5780601f106102405761010080835404028352916020019161026b565b820191906000526020600020905b81548152906001019060200180831161024e57829003601f168201915b505050505081565b600460009054906101000a900460ff1681565b6000600354905090565b6102986107b0565b604051806080016040528060008054600181600116156101000203166002900480601f0160208091040260200160405190810160405280929190818152602001828054600181600116156101000203166002900480156103395780601f1061030e57610100808354040283529160200191610339565b820191906000526020600020905b81548152906001019060200180831161031c57829003601f168201915b5050505050815260200160018054600181600116156101000203166002900480601f0160208091040260200160405190810160405280929190818152602001828054600181600116156101000203166002900480156103d95780601f106103ae576101008083540402835291602001916103d9565b820191906000526020600020905b8154815290600101906020018083116103bc57829003601f168201915b5050505050815260200160028054600181600116156101000203166002900480601f0160208091040260200160405190810160405280929190818152602001828054600181600116156101000203166002900480156104795780601f1061044e57610100808354040283529160200191610479565b820191906000526020600020905b81548152906001019060200180831161045c57829003601f168201915b50505050508152602001600354815250905090565b606060008054600181600116156101000203166002900480601f0160208091040260200160405190810160405280929190818152602001828054600181600116156101000203166002900480156105265780601f106104fb57610100808354040283529160200191610526565b820191906000526020600020905b81548152906001019060200180831161050957829003601f168201915b5050505050905090565b60008054600181600116156101000203166002900480601f0160208091040260200160405190810160405280929190818152602001828054600181600116156101000203166002900480156105c65780601f1061059b576101008083540402835291602001916105c6565b820191906000526020600020905b8154815290600101906020018083116105a957829003601f168201915b505050505081565b606060018054600181600116156101000203166002900480601f0160208091040260200160405190810160405280929190818152602001828054600181600116156101000203166002900480156106665780601f1061063b57610100808354040283529160200191610666565b820191906000526020600020905b81548152906001019060200180831161064957829003601f168201915b5050505050905090565b60018054600181600116156101000203166002900480601f0160208091040260200160405190810160405280929190818152602001828054600181600116156101000203166002900480156107065780601f106106db57610100808354040283529160200191610706565b820191906000526020600020905b8154815290600101906020018083116106e957829003601f168201915b505050505081565b606060028054600181600116156101000203166002900480601f0160208091040260200160405190810160405280929190818152602001828054600181600116156101000203166002900480156107a65780601f1061077b576101008083540402835291602001916107a6565b820191906000526020600020905b81548152906001019060200180831161078957829003601f168201915b5050505050905090565b6040518060800160405280606081526020016060815260200160608152602001600081525090565b6107e1816109f5565b82525050565b60006107f2826109c8565b6107fc81856109e4565b935061080c818560208601610a0b565b61081581610a3e565b840191505092915050565b600061082b826109bd565b61083581856109d3565b9350610845818560208601610a0b565b61084e81610a3e565b840191505092915050565b6000610864826109bd565b61086e81856109e4565b935061087e818560208601610a0b565b61088781610a3e565b840191505092915050565b600060808301600083015184820360008601526108af8282610820565b915050602083015184820360208601526108c98282610820565b915050604083015184820360408601526108e38282610820565b91505060608301516108f86060860182610903565b508091505092915050565b61090c81610a01565b82525050565b61091b81610a01565b82525050565b600060208201905061093660008301846107d8565b92915050565b600060208201905081810360008301526109568184610859565b905092915050565b6000602082019050818103600083015261097881846107e7565b905092915050565b6000602082019050818103600083015261099a8184610892565b905092915050565b60006020820190506109b76000830184610912565b92915050565b600081519050919050565b600081519050919050565b600082825260208201905092915050565b600082825260208201905092915050565b60008115159050919050565b6000819050919050565b60005b83811015610a29578082015181840152602081019050610a0e565b83811115610a38576000848401525b50505050565b6000601f19601f830116905091905056fea365627a7a723158208b9f23d7ecea848841497f93f63e2b23d2bf6478d1ac86913c53dfad1cfa9f816c6578706572696d656e74616cf564736f6c63430005100040",
  "source": "pragma solidity ^0.5.0;\npragma experimental ABIEncoderV2;\n\ncontract HexGrid {\n    string public Color;\n    string public Text;\n    string public Emoji;\n    uint256 public CreatedDate;\n    bool public exists;\n\n    struct HexGridStruct {\n        string Color;\n        string Text;\n        string Emoji;\n        uint256 CreatedDate;\n    }  \n\n    constructor (string memory color, string memory text, string memory emoji) public {\n        Color = color;\n        Text = text;\n        Emoji = emoji;\n        CreatedDate = now;\n        exists = true;\n    }\n\n    function getColor() public view returns(string memory) {\n        return Color;\n    }\n\n    function getText() public view returns (string memory) {\n        return Text;\n    }\n\n    function getEmoji() public view returns (string memory) {\n        return Emoji;\n    }\n\n    function getCreatedDate() public view returns (uint256) {\n        return CreatedDate;\n    }\n\n    function getData() public view returns (HexGridStruct memory) {\n        return HexGridStruct(Color, Text, Emoji, CreatedDate);\n    }\n}\n\ncontract HexGridStore {\n    struct HexGridData {\n        HexGrid HexGridAddress;\n        uint256 expirationDate;\n        bool exists;\n    }\n\n    mapping (string => HexGridData) public hexGridDataItems;\n\n    function addHexGridData(string memory hexGridId, string memory color, string memory emoji, string memory text) public{\n        if (hexGridDataItems[hexGridId].expirationDate != 0) {\n            HexGridData memory prevHexGridDataItem = hexGridDataItems[hexGridId];\n            require(now > prevHexGridDataItem.expirationDate);\n        }\n\n        HexGrid hexGridAddress = new HexGrid(color, text, emoji);\n        hexGridDataItems[hexGridId] = HexGridData(hexGridAddress, now + 1 days, true);\n    }\n\n    function getHexGrids(string[] memory hexGridIds) public view returns(HexGrid.HexGridStruct[] memory){\n        uint len = hexGridIds.length;\n        HexGrid.HexGridStruct[] memory hexGrids = new HexGrid.HexGridStruct[](len); \n\n        for (uint i = 0; i < len; i++) {\n            string memory hexGridId = hexGridIds[i];\n            if (hexGridDataItems[hexGridId].exists == true) {\n                HexGrid iHexGrid = HexGrid(hexGridDataItems[hexGridId].HexGridAddress);\n                if (iHexGrid.exists() == true) {\n                    hexGrids[i] = iHexGrid.getData();\n                }\n            } \n        }\n        return hexGrids;\n    }\n}",
  "sourcePath": "/Users/jerry/Projects/crypto_map/contracts/HexGridStore.sol",
  "compiler": {
    "name": "solc",
    "version": "0.5.16+commit.9c3226ce.Emscripten.clang"
  },
  "schemaVersion": "3.3.3",
  "updatedAt": "2021-03-07T21:15:06.702Z",
  "devdoc": {
    "methods": {}
  },
  "userdoc": {
    "methods": {}
  }
}