{
  "contractName": "HexGridStore",
  "abi": [
    {
      "constant": true,
      "inputs": [
        {
          "internalType": "string",
          "name": "",
          "type": "string"
        }
      ],
      "name": "hexGridDataItems",
      "outputs": [
        {
          "internalType": "contract HexGrid",
          "name": "HexGridAddress",
          "type": "address"
        },
        {
          "internalType": "uint256",
          "name": "expirationDate",
          "type": "uint256"
        },
        {
          "internalType": "bool",
          "name": "exists",
          "type": "bool"
        }
      ],
      "payable": false,
      "stateMutability": "view",
      "type": "function"
    },
    {
      "constant": false,
      "inputs": [
        {
          "internalType": "string",
          "name": "hexGridId",
          "type": "string"
        },
        {
          "internalType": "string",
          "name": "color",
          "type": "string"
        },
        {
          "internalType": "string",
          "name": "emoji",
          "type": "string"
        },
        {
          "internalType": "string",
          "name": "text",
          "type": "string"
        }
      ],
      "name": "addHexGridData",
      "outputs": [],
      "payable": false,
      "stateMutability": "nonpayable",
      "type": "function"
    },
    {
      "constant": true,
      "inputs": [
        {
          "internalType": "string[]",
          "name": "hexGridIds",
          "type": "string[]"
        }
      ],
      "name": "getHexGrids",
      "outputs": [
        {
          "components": [
            {
              "internalType": "string",
              "name": "Color",
              "type": "string"
            },
            {
              "internalType": "string",
              "name": "Text",
              "type": "string"
            },
            {
              "internalType": "string",
              "name": "Emoji",
              "type": "string"
            },
            {
              "internalType": "uint256",
              "name": "CreatedDate",
              "type": "uint256"
            }
          ],
          "internalType": "struct HexGrid.HexGridStruct[]",
          "name": "",
          "type": "tuple[]"
        }
      ],
      "payable": false,
      "stateMutability": "view",
      "type": "function"
    }
  ],
  "bytecode": "0x608060405234801561001057600080fd5b50611d0e806100206000396000f3fe60806040523480156200001157600080fd5b5060043610620000465760003560e01c80631b6e6f26146200004b578063c7f9f77a1462000083578063f8a2545f14620000a3575b600080fd5b620000696004803603620000639190810190620008f7565b620000d9565b6040516200007a9392919062000c9b565b60405180910390f35b620000a160048036036200009b91908101906200093c565b62000146565b005b620000c16004803603620000bb919081019062000886565b6200034b565b604051620000d0919062000c77565b60405180910390f35b6000818051602081018201805184825260208301602085012081835280955050505050506000915090508060000160009054906101000a900473ffffffffffffffffffffffffffffffffffffffff16908060010154908060020160009054906101000a900460ff16905083565b6000808560405162000159919062000c5e565b9081526020016040518091039020600101541462000236576200017b6200058e565b6000856040516200018d919062000c5e565b90815260200160405180910390206040518060600160405290816000820160009054906101000a900473ffffffffffffffffffffffffffffffffffffffff1673ffffffffffffffffffffffffffffffffffffffff1673ffffffffffffffffffffffffffffffffffffffff168152602001600182015481526020016002820160009054906101000a900460ff1615151515815250509050806020015142116200023457600080fd5b505b60008382846040516200024990620005c7565b620002579392919062000cd8565b604051809103906000f08015801562000274573d6000803e3d6000fd5b50905060405180606001604052808273ffffffffffffffffffffffffffffffffffffffff168152602001620151804201815260200160011515815250600086604051620002c2919062000c5e565b908152602001604051809103902060008201518160000160006101000a81548173ffffffffffffffffffffffffffffffffffffffff021916908373ffffffffffffffffffffffffffffffffffffffff1602179055506020820151816001015560408201518160020160006101000a81548160ff0219169083151502179055509050505050505050565b60606000825190506060816040519080825280602002602001820160405280156200039357816020015b6200037f620005d5565b815260200190600190039081620003755790505b50905060008090505b8281101562000583576060858281518110620003b457fe5b6020026020010151905060011515600082604051620003d4919062000c5e565b908152602001604051809103902060020160009054906101000a900460ff16151514156200057457600080826040516200040f919062000c5e565b908152602001604051809103902060000160009054906101000a900473ffffffffffffffffffffffffffffffffffffffff169050600115158173ffffffffffffffffffffffffffffffffffffffff1663267c4ae46040518163ffffffff1660e01b815260040160206040518083038186803b1580156200048e57600080fd5b505afa158015620004a3573d6000803e3d6000fd5b505050506040513d601f19601f82011682018060405250620004c99190810190620008cb565b1515141562000572578073ffffffffffffffffffffffffffffffffffffffff16633bc5de306040518163ffffffff1660e01b815260040160006040518083038186803b1580156200051957600080fd5b505afa1580156200052e573d6000803e3d6000fd5b505050506040513d6000823e3d601f19601f8201168201806040525062000559919081019062000a0c565b8484815181106200056657fe5b60200260200101819052505b505b5080806001019150506200039c565b508092505050919050565b6040518060600160405280600073ffffffffffffffffffffffffffffffffffffffff168152602001600081526020016000151581525090565b610d8c8062000f4083390190565b6040518060800160405280606081526020016060815260200160608152602001600081525090565b600082601f8301126200060f57600080fd5b813562000626620006208262000d58565b62000d2a565b9150818183526020840193506020810190508360005b8381101562000670578135860162000655888262000691565b8452602084019350602083019250506001810190506200063c565b5050505092915050565b6000815190506200068b8162000f0b565b92915050565b600082601f830112620006a357600080fd5b8135620006ba620006b48262000d81565b62000d2a565b91508082526020830160208301858383011115620006d757600080fd5b620006e483828462000eb5565b50505092915050565b600082601f830112620006ff57600080fd5b815162000716620007108262000d81565b62000d2a565b915080825260208301602083018583830111156200073357600080fd5b6200074083828462000ec4565b50505092915050565b600082601f8301126200075b57600080fd5b8135620007726200076c8262000dae565b62000d2a565b915080825260208301602083018583830111156200078f57600080fd5b6200079c83828462000eb5565b50505092915050565b600060808284031215620007b857600080fd5b620007c4608062000d2a565b9050600082015167ffffffffffffffff811115620007e157600080fd5b620007ef84828501620006ed565b600083015250602082015167ffffffffffffffff8111156200081057600080fd5b6200081e84828501620006ed565b602083015250604082015167ffffffffffffffff8111156200083f57600080fd5b6200084d84828501620006ed565b604083015250606062000863848285016200086f565b60608301525092915050565b600081519050620008808162000f25565b92915050565b6000602082840312156200089957600080fd5b600082013567ffffffffffffffff811115620008b457600080fd5b620008c284828501620005fd565b91505092915050565b600060208284031215620008de57600080fd5b6000620008ee848285016200067a565b91505092915050565b6000602082840312156200090a57600080fd5b600082013567ffffffffffffffff8111156200092557600080fd5b620009338482850162000691565b91505092915050565b600080600080608085870312156200095357600080fd5b600085013567ffffffffffffffff8111156200096e57600080fd5b6200097c8782880162000749565b945050602085013567ffffffffffffffff8111156200099a57600080fd5b620009a88782880162000749565b935050604085013567ffffffffffffffff811115620009c657600080fd5b620009d48782880162000749565b925050606085013567ffffffffffffffff811115620009f257600080fd5b62000a008782880162000749565b91505092959194509250565b60006020828403121562000a1f57600080fd5b600082015167ffffffffffffffff81111562000a3a57600080fd5b62000a4884828501620007a5565b91505092915050565b600062000a5f838362000bc3565b905092915050565b600062000a748262000deb565b62000a80818562000e19565b93508360208202850162000a948562000ddb565b8060005b8581101562000ad6578484038952815162000ab4858262000a51565b945062000ac18362000e0c565b925060208a0199505060018101905062000a98565b50829750879550505050505092915050565b62000af38162000e57565b82525050565b62000b048162000e8d565b82525050565b600062000b178262000e01565b62000b23818562000e3b565b935062000b3581856020860162000ec4565b62000b408162000efa565b840191505092915050565b600062000b588262000e01565b62000b64818562000e4c565b935062000b7681856020860162000ec4565b80840191505092915050565b600062000b8f8262000df6565b62000b9b818562000e2a565b935062000bad81856020860162000ec4565b62000bb88162000efa565b840191505092915050565b6000608083016000830151848203600086015262000be2828262000b82565b9150506020830151848203602086015262000bfe828262000b82565b9150506040830151848203604086015262000c1a828262000b82565b915050606083015162000c31606086018262000c3c565b508091505092915050565b62000c478162000e83565b82525050565b62000c588162000e83565b82525050565b600062000c6c828462000b4b565b915081905092915050565b6000602082019050818103600083015262000c93818462000a67565b905092915050565b600060608201905062000cb2600083018662000af9565b62000cc1602083018562000c4d565b62000cd0604083018462000ae8565b949350505050565b6000606082019050818103600083015262000cf4818662000b0a565b9050818103602083015262000d0a818562000b0a565b9050818103604083015262000d20818462000b0a565b9050949350505050565b6000604051905081810181811067ffffffffffffffff8211171562000d4e57600080fd5b8060405250919050565b600067ffffffffffffffff82111562000d7057600080fd5b602082029050602081019050919050565b600067ffffffffffffffff82111562000d9957600080fd5b601f19601f8301169050602081019050919050565b600067ffffffffffffffff82111562000dc657600080fd5b601f19601f8301169050602081019050919050565b6000819050602082019050919050565b600081519050919050565b600081519050919050565b600081519050919050565b6000602082019050919050565b600082825260208201905092915050565b600082825260208201905092915050565b600082825260208201905092915050565b600081905092915050565b60008115159050919050565b600073ffffffffffffffffffffffffffffffffffffffff82169050919050565b6000819050919050565b600062000e9a8262000ea1565b9050919050565b600062000eae8262000e63565b9050919050565b82818337600083830152505050565b60005b8381101562000ee457808201518184015260208101905062000ec7565b8381111562000ef4576000848401525b50505050565b6000601f19601f8301169050919050565b62000f168162000e57565b811462000f2257600080fd5b50565b62000f308162000e83565b811462000f3c57600080fd5b5056fe60806040523480156200001157600080fd5b5060405162000d8c38038062000d8c8339818101604052620000379190810190620001b8565b82600090805190602001906200004f929190620000ad565b50816001908051906020019062000068929190620000ad565b50806002908051906020019062000081929190620000ad565b50426003819055506001600460006101000a81548160ff021916908315150217905550505050620002ea565b828054600181600116156101000203166002900490600052602060002090601f016020900481019282601f10620000f057805160ff191683800117855562000121565b8280016001018555821562000121579182015b828111156200012057825182559160200191906001019062000103565b5b50905062000130919062000134565b5090565b6200015991905b80821115620001555760008160009055506001016200013b565b5090565b90565b600082601f8301126200016e57600080fd5b8151620001856200017f8262000287565b62000259565b91508082526020830160208301858383011115620001a257600080fd5b620001af838284620002b4565b50505092915050565b600080600060608486031215620001ce57600080fd5b600084015167ffffffffffffffff811115620001e957600080fd5b620001f7868287016200015c565b935050602084015167ffffffffffffffff8111156200021557600080fd5b62000223868287016200015c565b925050604084015167ffffffffffffffff8111156200024157600080fd5b6200024f868287016200015c565b9150509250925092565b6000604051905081810181811067ffffffffffffffff821117156200027d57600080fd5b8060405250919050565b600067ffffffffffffffff8211156200029f57600080fd5b601f19601f8301169050602081019050919050565b60005b83811015620002d4578082015181840152602081019050620002b7565b83811115620002e4576000848401525b50505050565b610a9280620002fa6000396000f3fe608060405234801561001057600080fd5b506004361061009e5760003560e01c80639a86139b116100665780639a86139b14610139578063de5119f314610157578063e00fe2eb14610175578063f99a61e714610193578063fc6f3440146101b15761009e565b806308d056f0146100a35780631873355e146100c1578063267c4ae4146100df57806328aea735146100fd5780633bc5de301461011b575b600080fd5b6100ab6101cf565b6040516100b891906109a2565b60405180910390f35b6100c96101d5565b6040516100d6919061093c565b60405180910390f35b6100e7610273565b6040516100f49190610921565b60405180910390f35b610105610286565b60405161011291906109a2565b60405180910390f35b610123610290565b6040516101309190610980565b60405180910390f35b61014161048e565b60405161014e919061095e565b60405180910390f35b61015f610530565b60405161016c919061093c565b60405180910390f35b61017d6105ce565b60405161018a919061095e565b60405180910390f35b61019b610670565b6040516101a8919061093c565b60405180910390f35b6101b961070e565b6040516101c6919061095e565b60405180910390f35b60035481565b60028054600181600116156101000203166002900480601f01602080910402602001604051908101604052809291908181526020018280546001816001161561010002031660029004801561026b5780601f106102405761010080835404028352916020019161026b565b820191906000526020600020905b81548152906001019060200180831161024e57829003601f168201915b505050505081565b600460009054906101000a900460ff1681565b6000600354905090565b6102986107b0565b604051806080016040528060008054600181600116156101000203166002900480601f0160208091040260200160405190810160405280929190818152602001828054600181600116156101000203166002900480156103395780601f1061030e57610100808354040283529160200191610339565b820191906000526020600020905b81548152906001019060200180831161031c57829003601f168201915b5050505050815260200160018054600181600116156101000203166002900480601f0160208091040260200160405190810160405280929190818152602001828054600181600116156101000203166002900480156103d95780601f106103ae576101008083540402835291602001916103d9565b820191906000526020600020905b8154815290600101906020018083116103bc57829003601f168201915b5050505050815260200160028054600181600116156101000203166002900480601f0160208091040260200160405190810160405280929190818152602001828054600181600116156101000203166002900480156104795780601f1061044e57610100808354040283529160200191610479565b820191906000526020600020905b81548152906001019060200180831161045c57829003601f168201915b50505050508152602001600354815250905090565b606060008054600181600116156101000203166002900480601f0160208091040260200160405190810160405280929190818152602001828054600181600116156101000203166002900480156105265780601f106104fb57610100808354040283529160200191610526565b820191906000526020600020905b81548152906001019060200180831161050957829003601f168201915b5050505050905090565b60008054600181600116156101000203166002900480601f0160208091040260200160405190810160405280929190818152602001828054600181600116156101000203166002900480156105c65780601f1061059b576101008083540402835291602001916105c6565b820191906000526020600020905b8154815290600101906020018083116105a957829003601f168201915b505050505081565b606060018054600181600116156101000203166002900480601f0160208091040260200160405190810160405280929190818152602001828054600181600116156101000203166002900480156106665780601f1061063b57610100808354040283529160200191610666565b820191906000526020600020905b81548152906001019060200180831161064957829003601f168201915b5050505050905090565b60018054600181600116156101000203166002900480601f0160208091040260200160405190810160405280929190818152602001828054600181600116156101000203166002900480156107065780601f106106db57610100808354040283529160200191610706565b820191906000526020600020905b8154815290600101906020018083116106e957829003601f168201915b505050505081565b606060028054600181600116156101000203166002900480601f0160208091040260200160405190810160405280929190818152602001828054600181600116156101000203166002900480156107a65780601f1061077b576101008083540402835291602001916107a6565b820191906000526020600020905b81548152906001019060200180831161078957829003601f168201915b5050505050905090565b6040518060800160405280606081526020016060815260200160608152602001600081525090565b6107e1816109f5565b82525050565b60006107f2826109c8565b6107fc81856109e4565b935061080c818560208601610a0b565b61081581610a3e565b840191505092915050565b600061082b826109bd565b61083581856109d3565b9350610845818560208601610a0b565b61084e81610a3e565b840191505092915050565b6000610864826109bd565b61086e81856109e4565b935061087e818560208601610a0b565b61088781610a3e565b840191505092915050565b600060808301600083015184820360008601526108af8282610820565b915050602083015184820360208601526108c98282610820565b915050604083015184820360408601526108e38282610820565b91505060608301516108f86060860182610903565b508091505092915050565b61090c81610a01565b82525050565b61091b81610a01565b82525050565b600060208201905061093660008301846107d8565b92915050565b600060208201905081810360008301526109568184610859565b905092915050565b6000602082019050818103600083015261097881846107e7565b905092915050565b6000602082019050818103600083015261099a8184610892565b905092915050565b60006020820190506109b76000830184610912565b92915050565b600081519050919050565b600081519050919050565b600082825260208201905092915050565b600082825260208201905092915050565b60008115159050919050565b6000819050919050565b60005b83811015610a29578082015181840152602081019050610a0e565b83811115610a38576000848401525b50505050565b6000601f19601f830116905091905056fea365627a7a723158208b9f23d7ecea848841497f93f63e2b23d2bf6478d1ac86913c53dfad1cfa9f816c6578706572696d656e74616cf564736f6c63430005100040a365627a7a723158205f4aab4f8ecf530064538e52027ec0bc86b644fc6b0080e42b173dc35df99e6c6c6578706572696d656e74616cf564736f6c63430005100040",
  "source": "pragma solidity ^0.5.0;\npragma experimental ABIEncoderV2;\n\ncontract HexGrid {\n    string public Color;\n    string public Text;\n    string public Emoji;\n    uint256 public CreatedDate;\n    bool public exists;\n\n    struct HexGridStruct {\n        string Color;\n        string Text;\n        string Emoji;\n        uint256 CreatedDate;\n    }  \n\n    constructor (string memory color, string memory text, string memory emoji) public {\n        Color = color;\n        Text = text;\n        Emoji = emoji;\n        CreatedDate = now;\n        exists = true;\n    }\n\n    function getColor() public view returns(string memory) {\n        return Color;\n    }\n\n    function getText() public view returns (string memory) {\n        return Text;\n    }\n\n    function getEmoji() public view returns (string memory) {\n        return Emoji;\n    }\n\n    function getCreatedDate() public view returns (uint256) {\n        return CreatedDate;\n    }\n\n    function getData() public view returns (HexGridStruct memory) {\n        return HexGridStruct(Color, Text, Emoji, CreatedDate);\n    }\n}\n\ncontract HexGridStore {\n    struct HexGridData {\n        HexGrid HexGridAddress;\n        uint256 expirationDate;\n        bool exists;\n    }\n\n    mapping (string => HexGridData) public hexGridDataItems;\n\n    function addHexGridData(string memory hexGridId, string memory color, string memory emoji, string memory text) public{\n        if (hexGridDataItems[hexGridId].expirationDate != 0) {\n            HexGridData memory prevHexGridDataItem = hexGridDataItems[hexGridId];\n            require(now > prevHexGridDataItem.expirationDate);\n        }\n\n        HexGrid hexGridAddress = new HexGrid(color, text, emoji);\n        hexGridDataItems[hexGridId] = HexGridData(hexGridAddress, now + 1 days, true);\n    }\n\n    function getHexGrids(string[] memory hexGridIds) public view returns(HexGrid.HexGridStruct[] memory){\n        uint len = hexGridIds.length;\n        HexGrid.HexGridStruct[] memory hexGrids = new HexGrid.HexGridStruct[](len); \n\n        for (uint i = 0; i < len; i++) {\n            string memory hexGridId = hexGridIds[i];\n            if (hexGridDataItems[hexGridId].exists == true) {\n                HexGrid iHexGrid = HexGrid(hexGridDataItems[hexGridId].HexGridAddress);\n                if (iHexGrid.exists() == true) {\n                    hexGrids[i] = iHexGrid.getData();\n                }\n            } \n        }\n        return hexGrids;\n    }\n}",
  "sourcePath": "/Users/jerry/Projects/crypto_map/contracts/HexGridStore.sol",
  "compiler": {
    "name": "solc",
    "version": "0.5.16+commit.9c3226ce.Emscripten.clang"
  },
  "schemaVersion": "3.3.3",
  "updatedAt": "2021-03-07T21:15:45.325Z",
  "networkType": "ethereum",
  "devdoc": {
    "methods": {}
  },
  "userdoc": {
    "methods": {}
  }
}