{
  "contractName": "HexGridStore",
  "abi": [
    {
      "constant": true,
      "inputs": [
        {
          "internalType": "string",
          "name": "",
          "type": "string"
        }
      ],
      "name": "hexGridDataItems",
      "outputs": [
        {
          "internalType": "string",
          "name": "color",
          "type": "string"
        },
        {
          "internalType": "string",
          "name": "text",
          "type": "string"
        },
        {
          "internalType": "string",
          "name": "emoji",
          "type": "string"
        },
        {
          "internalType": "uint256",
          "name": "expirationDate",
          "type": "uint256"
        }
      ],
      "payable": false,
      "stateMutability": "view",
      "type": "function"
    },
    {
      "constant": false,
      "inputs": [
        {
          "internalType": "string",
          "name": "hexGridId",
          "type": "string"
        },
        {
          "internalType": "string",
          "name": "color",
          "type": "string"
        },
        {
          "internalType": "string",
          "name": "emoji",
          "type": "string"
        },
        {
          "internalType": "string",
          "name": "text",
          "type": "string"
        }
      ],
      "name": "addHexGridData",
      "outputs": [],
      "payable": false,
      "stateMutability": "nonpayable",
      "type": "function"
    }
  ],
  "bytecode": "0x608060405234801561001057600080fd5b50610bde806100206000396000f3fe608060405234801561001057600080fd5b50600436106100365760003560e01c80631b6e6f261461003b578063c7f9f77a1461024e575b600080fd5b6100f46004803603602081101561005157600080fd5b810190808035906020019064010000000081111561006e57600080fd5b82018360208201111561008057600080fd5b803590602001918460018302840111640100000000831117156100a257600080fd5b91908080601f016020809104026020016040519081016040528093929190818152602001838380828437600081840152601f19601f8201169050808301925050505050505091929192905050506104ce565b60405180806020018060200180602001858152602001848103845288818151815260200191508051906020019080838360005b83811015610142578082015181840152602081019050610127565b50505050905090810190601f16801561016f5780820380516001836020036101000a031916815260200191505b50848103835287818151815260200191508051906020019080838360005b838110156101a857808201518184015260208101905061018d565b50505050905090810190601f1680156101d55780820380516001836020036101000a031916815260200191505b50848103825286818151815260200191508051906020019080838360005b8381101561020e5780820151818401526020810190506101f3565b50505050905090810190601f16801561023b5780820380516001836020036101000a031916815260200191505b5097505050505050505060405180910390f35b6104cc6004803603608081101561026457600080fd5b810190808035906020019064010000000081111561028157600080fd5b82018360208201111561029357600080fd5b803590602001918460018302840111640100000000831117156102b557600080fd5b91908080601f016020809104026020016040519081016040528093929190818152602001838380828437600081840152601f19601f8201169050808301925050505050505091929192908035906020019064010000000081111561031857600080fd5b82018360208201111561032a57600080fd5b8035906020019184600183028401116401000000008311171561034c57600080fd5b91908080601f016020809104026020016040519081016040528093929190818152602001838380828437600081840152601f19601f820116905080830192505050505050509192919290803590602001906401000000008111156103af57600080fd5b8201836020820111156103c157600080fd5b803590602001918460018302840111640100000000831117156103e357600080fd5b91908080601f016020809104026020016040519081016040528093929190818152602001838380828437600081840152601f19601f8201169050808301925050505050505091929192908035906020019064010000000081111561044657600080fd5b82018360208201111561045857600080fd5b8035906020019184600183028401116401000000008311171561047a57600080fd5b91908080601f016020809104026020016040519081016040528093929190818152602001838380828437600081840152601f19601f8201169050808301925050505050505091929192905050506106dc565b005b600081805160208101820180518482526020830160208501208183528095505050505050600091509050806000018054600181600116156101000203166002900480601f0160208091040260200160405190810160405280929190818152602001828054600181600116156101000203166002900480156105905780601f1061056557610100808354040283529160200191610590565b820191906000526020600020905b81548152906001019060200180831161057357829003601f168201915b505050505090806001018054600181600116156101000203166002900480601f01602080910402602001604051908101604052809291908181526020018280546001816001161561010002031660029004801561062e5780601f106106035761010080835404028352916020019161062e565b820191906000526020600020905b81548152906001019060200180831161061157829003601f168201915b505050505090806002018054600181600116156101000203166002900480601f0160208091040260200160405190810160405280929190818152602001828054600181600116156101000203166002900480156106cc5780601f106106a1576101008083540402835291602001916106cc565b820191906000526020600020905b8154815290600101906020018083116106af57829003601f168201915b5050505050908060030154905084565b6000620151809050600080866040518082805190602001908083835b6020831061071b57805182526020820191506020810190506020830392506106f8565b6001836020036101000a038019825116818451168082178552505050505050905001915050908152602001604051809103902060030154146109d95761075f610adc565b6000866040518082805190602001908083835b602083106107955780518252602082019150602081019050602083039250610772565b6001836020036101000a0380198251168184511680821785525050505050509050019150509081526020016040518091039020604051806080016040529081600082018054600181600116156101000203166002900480601f01602080910402602001604051908101604052809291908181526020018280546001816001161561010002031660029004801561086c5780601f106108415761010080835404028352916020019161086c565b820191906000526020600020905b81548152906001019060200180831161084f57829003601f168201915b50505050508152602001600182018054600181600116156101000203166002900480601f01602080910402602001604051908101604052809291908181526020018280546001816001161561010002031660029004801561090e5780601f106108e35761010080835404028352916020019161090e565b820191906000526020600020905b8154815290600101906020018083116108f157829003601f168201915b50505050508152602001600282018054600181600116156101000203166002900480601f0160208091040260200160405190810160405280929190818152602001828054600181600116156101000203166002900480156109b05780601f10610985576101008083540402835291602001916109b0565b820191906000526020600020905b81548152906001019060200180831161099357829003601f168201915b5050505050815260200160038201548152505090508181606001514203116109d757600080fd5b505b6109e1610adc565b60405180608001604052808681526020018481526020018581526020018342018152509050806000876040518082805190602001908083835b60208310610a3d5780518252602082019150602081019050602083039250610a1a565b6001836020036101000a03801982511681845116808217855250505050505090500191505090815260200160405180910390206000820151816000019080519060200190610a8c929190610b04565b506020820151816001019080519060200190610aa9929190610b04565b506040820151816002019080519060200190610ac6929190610b04565b5060608201518160030155905050505050505050565b6040518060800160405280606081526020016060815260200160608152602001600081525090565b828054600181600116156101000203166002900490600052602060002090601f016020900481019282601f10610b4557805160ff1916838001178555610b73565b82800160010185558215610b73579182015b82811115610b72578251825591602001919060010190610b57565b5b509050610b809190610b84565b5090565b610ba691905b80821115610ba2576000816000905550600101610b8a565b5090565b9056fea265627a7a72315820dfcb0a9f1af736d37ac7e84cf47056a8d9913b1f956047224824ff403472665a64736f6c63430005100032",
  "source": "pragma solidity ^0.5.0;\n\ncontract HexGridStore {\n    struct HexGridData {\n        string color;\n        string text;\n        string emoji;\n        uint256 expirationDate;\n    }\n\n    mapping (string => HexGridData) public hexGridDataItems;\n\n    function addHexGridData(string memory hexGridId, string memory color, string memory emoji, string memory text) public{\n        uint epochDay = 86400;\n        if (hexGridDataItems[hexGridId].expirationDate != 0) {\n            \n            HexGridData memory prevHexGridDataItem = hexGridDataItems[hexGridId];\n            if ((now - prevHexGridDataItem.expirationDate) <= epochDay) {\n                revert();\n            }\n        }\n\n        HexGridData memory hexGridDataItem = HexGridData(color, text, emoji, now + epochDay);\n        hexGridDataItems[hexGridId] = hexGridDataItem;\n    }\n}",
  "sourcePath": "/Users/jerry/Projects/crypto_map/contracts/HexGridStore.sol",
  "compiler": {
    "name": "solc",
    "version": "0.5.16+commit.9c3226ce.Emscripten.clang"
  },
  "schemaVersion": "3.3.3",
  "updatedAt": "2021-01-21T06:01:31.312Z",
  "networkType": "ethereum",
  "devdoc": {
    "methods": {}
  },
  "userdoc": {
    "methods": {}
  }
}